:0300000002059264
:0C059200787FE4F6D8FD7581420205D99F
:04000E00D2A07F32CB
:0800120000AE071FEE70F92299
:0F085400D2A112000EC2A17F32120012C2A02246
:0C086300C2A112000ED2A17F32020012CE
:1007DD00C2A0A20092A17F3212001212000EC2A07E
:0707ED00D2A17F32020012CD
:0807C4001208547FA01207186F
:1007CC0012000EA2A19201C2A07F32120012A2014D
:0107DC0022FA
:02071800AD072B
:10071A00E4FCC2A07F32120012ED30E704D2A180BD
:10072A0002C2A17F32120012D2A0ED25E0FD7F3273
:09073A001200120CBC08DBC2A085
:010743002293
:10078D00E4FC12000EED25E0FD30A103430501C28E
:0C079D00A07F321200120CBC08E8AF056F
:0107A900222D
:1007AA00AB05AA071207C4AF021207181207CCAF8B
:0A07BA00031207181207CC020863AF
:02076A00AB07DB
:10076C001207C4AF031207181207CC1208547FA14A
:10077C001207181207CC12078DAD07120863AF05CC
:01078C00224A
:1007F4001208547F901207181207CC7F03120718AF
:060804001207CC0208639C
:10083200E4FF1208547F911207181207CC12078D99
:010842002293
:1006E5003F065B4F666D7D077F6F777C395E79715D
:1006F5000040761E7038375C733E783D6750376E24
:10070500BF86DBCFE6EDFD87FFEF4601020408104B
:0307150020408001
:0A086F00082E1010101010101010C9
:1008430075A0A0E4F580F5A075A0807580FFF5A0E4
:010853002282
:10080A00438E805389F0758ACD758CD4C28DD28C73
:05081A00D2A9D2AF22BB
:10081F00438E4053890F758BCD758DD4C28FD28E79
:03082F00D2AB2227
:1007440075B0F0D2C2D2C4A2C292B6A2C492B7E526
:10075400B054F075B00FC2C2C2C445B0F4FF6536E0
:050764005FF53B8F363C
:01076900226D
:03000B000204E606
:0D04E600C0E0C083C082C0D075D000C0004F
:1004F3000524E52470020523C39402E523940040F8
:100503004F75230075240075A0C075800075A00089
:1005130075A0E0742E2522F8E69006E593F4F580A5
:1005230075A00075A0C074102522F58274073521CB
:10053300F583E493F58075A0000522E5227002059A
:1005430021C39408E521940040067521007522001B
:100553000526E52670020525C3940AE52594004087
:10056300097525007526007540010528E5287002E8
:100573000527C39464E5279400400975270075286F
:0405830000753701C7
:0B058700D000D0D0D082D083D0E03272
:03001B0002066773
:0B066700C0E0C0F0C0D075D000C0079C
:10067200E53F75F00AA4FFC3E52D9FE52C95F050E8
:1006820016052AE52A70020529C39488E5299413E0
:10069200400E753C018009752900752A00753C00E1
:0906A200D007D0D0D0F0D0E03236
:10061E00E53CB4010875A0807580FE800675A0804B
:10062E007580FFE4F5A0C3E5429403E541940040D4
:10063E000875A0807580FB800675A0807580FFE42C
:10064E00F5A0E53A30E00875A0807580FD8006754E
:09065E00A0807580FFE4F5A022E4
:1006AB00E52B146018047031E53F75F00AA4FFD3F5
:1006BB00E52D9FE52C95F04020752B0122E53F752C
:1006CB00F00AA4FFD3E52D9FE52C95F0500B053ACE
:0906DB00E53A70020539E4F52B43
:0106E40022F3
:1002E6001208431207F4E4FF12076A8F3F1208321E
:1002F60012080A12081FE540640160030203A1F513
:10030600401206AB120744E53BB4281DE4F541F55F
:10031600420538E538B40207AD3FE4FF1207AAE507
:1003260038C394034003E4F538E53BB42418E538B4
:10033600B4020BE4F541F542F539F53A8008054279
:10034600E54270020541E53BB41822E538B40115D3
:10035600E4F541F5427405253FF53FD39432400D4F
:10036600E4F53F80080542E54270020541E53BB4ED
:100376001429E538B4011CE4F541F54274FB253F28
:10038600F53FC394004007E53FD39432400D753FD7
:100396003280080542E54270020541E53764017086
:1003A60031F537C2AF120832753D008F3ED2AFAC81
:1003B6003DAD3EE41201C9E4FBFA797F78431201B0
:1003C60027E4FBFA79FA784312001E1202028E2CF9
:1003D6008F2DE53814604A14606F2402600302040E
:1003E600E0752E19753210753110753010752F1095
:1003F600AE2CAF2D7C007D64120283EF2420F533F2
:10040600AE2CAF2D7C007D641202837E007F0ACF66
:10041600CDCFCECCCE1202838F34AE2CAF2D0204BC
:10042600D7752E18753210753110753010752F105E
:10043600E53F75F00A842420F533E53F75F00A841C
:1004460085F034E4F5350204E0752E167530107526
:100456002F10AE39AF3A7C277D10120283EF4E7013
:10046600047F1080008F31AE39AF3A7C277D1012A1
:1004760002837E037FE8CFCDCFCECCCE120283EFB0
:100486004E70047F1080008F32AE39AF3A7C037D08
:10049600E81202837E007F64CFCDCFCECCCE12028F
:1004A60083EF4E70047F1080008F33AE39AF3A7CF5
:1004B600007D641202837E007F0ACFCDCFCECCCEE4
:1004C600120283EF4E70047F1080008F34AE39AF76
:1004D6003A7C007D0A1202838D3512061E0202FC4A
:10001E00EC4D6011E8497017ED33EC3304600DE4DC
:10002E00FCFFFEFD22E933E8330470F802026E1283
:10003E00023958046009E4CC248150062850090284
:10004E000278284003020275C0E0EB4A7044B98082
:10005E0006D0E0FB020264EF4E701CBD8008EBFF81
:10006E00EAFEE9FD80EBE98DF0A4FEE5F002010762
:10007E00E9CDF9EAFEEBFFEF89F0A4FCE5F0CE89BD
:10008E00F0A42EFFE435F0CD89F0A42DFEE435F07A
:10009E008067EF4E7005BD80D780C3EF8BF0A4ACA8
:1000AE00F0EE8BF0A42CFCE435F0F8EF8AF0A42CE3
:1000BE00E5F038FCE433CB8DF0A42CFCE5F03BF8F6
:1000CE00EE8AF0A42CFCE5F038F8E433CF89F0A4E6
:1000DE002CFCE5F038CF3400CE89F0A42FFFE5F0EC
:1000EE003EFEE433C98DF0A42EFEE5F039CD8AF044
:1000FE00A42FFFE5F03EFEE43DFD33D0E0FB5007BC
:10010E000BBB000F020278EC2CFCEF33FFEE33FE3C
:06011E00ED33FD0202506A
:10012400020278EC5D046005E85904700302026E73
:10013400120239580460F6EC4860F2EC7004FDFEDB
:10014400FF22C860DB2481C85009C39860025006AE
:100154000202759850CAF582E9294B4A7005AB82B0
:1001640002026475F0007C1A7880C3EF9BEE9AED6E
:1001740099400DC3EF9BFFEE9AFEED99FDE842F026
:10018400DC23ACF0D0E0FFD0E0FED0E0FDAB822079
:10019400E7101BEB60BAEC2CFCEF33FFEE33FEED03
:1001A40033FD020250E803F830E705C0F075F000B3
:1001B400EF2FFFEE33FEED33FD40B830E7C280AAE7
:1001C40075F020800E75F010800575F0087D007EB6
:1001D400007F003392D530D5031202D8EC3340109F
:1001E400EF33FFEE33FEED33FDEC33FCD5F0ED22BF
:0E01F400E5F0247EA2D513CC92E7CDCEFF22FB
:10020200EDD2E7CD33EC3392D524814006E4FFFEF4
:10021200FDFC22FCE4CFCECDCC24E0501174FF8053
:10022200EDC3CC13CCCD13CDCE13CECF13CF0470F0
:07023200F030D5DE0202D816
:10023900E9D2E7C933E833F892D5EDD2E7CD33EC0B
:0702490033FC5002B2D52284
:10025000EC30E7100FBF000C0EBE00080DBD00040F
:100260000BEB6014A2D5EB13FCED92E7FD2274FFBB
:10027000FCFDFEFF22E480F8A2D574FF13FC7D8014
:03028000E480EF28
:10059E000202E6E493A3F8E493A34003F68001F28B
:1005AE0008DFF48029E493A3F85407240CC8C3335E
:1005BE00C4540F4420C8834004F456800146F6DF2D
:1005CE00E4800B010204081020408090086FE47E46
:1005DE00019360BCA3FF543F30E509541FFEE49322
:1005EE00A360010ECF54C025E060A840B8E493A3E9
:1005FE00FAE493A3F8E493A3C8C582C8CAC583CA14
:10060E00F0A3C8C582C8CAC583CADFE9DEE780BECB
:01087900007E
:10028300BC000BBE0029EF8DF084FFADF022E4CC5F
:10029300F875F008EF2FFFEE33FEEC33FCEE9DEC28
:1002A300984005FCEE9DFE0FD5F0E9E4CEFD22ED6E
:1002B300F8F5F0EE8420D21CFEADF075F008EF2FB8
:1002C300FFED33FD4007985006D5F0F222C398FDA9
:0502D3000FD5F0EA2246
:0E02D800C3E49FFFE49EFEE49DFDE49CFC2237
:00000001FF
